:100000000C949A220C94879C0C945C9C0C94319CCC
:100010000C94069C0C94DB9B0C94B09B0C94859BDD
:100020000C945A9B0C94F5710C94F5710C94F57129
:100030000C94CB220C94FA4F0C94CB220C94CB2230
:100040000C94CB220C94DE8B0C94CB220C94CB2200
:100050000C94CB220C94CB220C94CB220C94109BAE
:100060000C94CB220C9405990C94DC980C94CB2224
:100070000C94CB220C94CB220C94CB220C94CB224C
:100080000C94B08B0C94CB220C94CB220C94CB22EE
:100090000C94CB220C94CB220C94CB220C942AA04F
:1000A0000C94CB220C94CB220C94828B0C94CB22FC
:1000B0000C94CB220C94CB220C94CB220C94548B1A
:1000C0000C94CB220C94CB220C94CB220C94B2989F
:1000D0000C9489980C94CB220C945F980C943698CD
:1000E0000C94CB22F9223C353C3542230625B92518
:1000F000C425D1253925EF2506261A262E26852644
:1001000049273028732B55253C353C353C35052493
:100110003C3510241C243C353C353C353C353C35C5
:100120003C353C353C353C353C353C353C353C3547
:10013000BB236D233C35F2243C353C353C353C3506
:100140003C353C353C353C353C353C35C82CD72C12
:100150003C353C353C35DB2C3C353C353C353C3581
:100160003C35122DE52D672E3C353C353C353C3574
:100170003C353C353730D42E712FD42F3C353C35AF
:100180003C353C353C353C353C353C353C353C35E7
:100190003C353C353C353C353C353C353C353C35D7
:1001A0003C353C353C353C353C353C353C353C35C7
:1001B0003C353C353C356F30A530F13006315D3192
:1001C0007831A231B731393262245D32A9322E330F
:1001D0004E33863396339649B349DE49F049024A95
:1001E0000D4A674ACE4ADA4A554B4B4B5A876087CD
:1001F0006A8778877A8780878A879887AA87AC8773
:1002000088978B977A977E978497C2978F979397C3
:1002100099979D97A197A797AB97AF97C297B597D7
:10022000B997BD97E899ED99F299FC99069A7F9A4A
:10023000109A189A209A2A9A349A3E9A4D9A579A66
:100240007F9A619A6B9A759A6DA170A183A193A10F
:100250009DA1B0A1C3A101A21BA227A22AA20CA307
:100260000FA3FEA202A306A346A313A317A31DA3D5
:1002700021A325A32BA32FA333A346A339A33DA3D7
:1002800041A305A84CCDB2D44EB93836A9020C50C2
:10029000B9918688083CA6AAAA2ABE000000803F21
:1002A00000000000000000000000000000FC000052
:1002B00000000000001FFFF0000000000001FFFF31
:1002C000FE000000000007FFFFFFC0000000001F4D
:1002D000FFFFFFF0000000007FFFFFFFF8000000BD
:1002E00000FFFFFFFFFE00000003FFFC007FFF0098
:1002F000000007FFC00007FFC000000FFF00000163
:10030000FFC000000FFC0000007FE0000007F807BE
:10031000FF803FC0000003F81FFFF00F80000001C6
:10032000FC7FFFFC0700000000FFFFFFFF00000054
:1003300000007FFFFFFF80000000003FFC007FC047
:10034000000000001FE0001FE0000002000FC000DE
:1003500007E00080078007C00001C003C00FC00392
:10036000E3FF80000FE00FF001FFFFE0001FE01F40
:10037000FC00FFFFF0007FE01FFF007FFFF801FFA0
:10038000F01FFF803F83F807FFE007FFE01E00F04B
:100390000FFFC003FFF80800003FFF0000FFFE0052
:1003A0000000FFFC00003FFF000001FFF800000F0D
:1003B000FFC0FE07FFE0000007FFC1FF07FF80004E
:1003C0000001FFC3FF87FF000000007F83FF87FC61
:1003D000000000003F83FF83F8000000003F83FF20
:1003E00083F8000000003F83FF83F8000000007FD7
:1003F00083FF87FC00000001FFC3FF87FE000000B1
:1004000003FFC1FF07FF8000000FFFC0FE07FFE0F2
:1004100000003FFF000003FFF80000FFFE000000A7
:10042000FFFC0001FFF80000003FFF0007FFE000B5
:1004300000000FFFC01FFFC003838007FFE01FFF06
:100440000007FFC001FFF01FFC0007FFC0007FF0A6
:100450000FF0000FFFE0001FE00FE0000FFFE000D3
:100460000FE00780001FFFF00003C00600003FFF01
:10047000F00000800000003FFFF8000000000000D6
:100480007FFFFC0000000000007FFFFC0000000078
:100490000000FFFFFE000000000001FFFFFE000063
:1004A00000000001FFFFFF000000000003FFFFFF4E
:1004B000000000000003FFFFFF800000000007FFB6
:1004C000FFFFC00000000007FFFFFFC000000000AA
:1004D0000FFFFFFFE0000000001FFFFFFFE0000034
:1004E00000001FFFFFFFF0000000001FFFFFFFE004
:1004F0000000000007FFFFFFC00000000001FFFF39
:10050000FF0000000000003FFFF8000000000000B6
:1005100001FE000000000000000000000000005389
:100520006574757020656E64730000000000000043
:1005300000000000000000FC000000000000001FA0
:10054000FFF0000000000001FFFFFE0000000000BF
:1005500007FFFFFFC0000000001FFFFFFFF00000CB
:1005600000007FFFFFFFF800000000FFFFFFFFFE1D
:1005700000000003FFFC007FFF00000007FFC00039
:1005800007FFC000000FFF000001FFC000000FFCCC
:100590000000007FE0000007F807FF803FC0000078
:1005A00003F81FFFF00F80000001FC7FFFFC070035
:1005B000000000FFFFFFFF00000000007FFFFFFFC3
:1005C00080000000003FFC007FC0000000001FE032
:1005D000001FE0000002000FC00007E0008007805D
:1005E00007C00001C003C00FC003E3FF80000FE09D
:1005F0000FF001FFFFE0001FE01FFC00FFFFF00015
:100600007FE01FFF007FFFF801FFF01FFF803F83A7
:10061000F807FFE007FFE01E00F00FFFC003FFF840
:100620000800003FFF0000FFFE000000FFFC00008C
:100630003FFF000001FFF800000FFFC0FE07FFE0D2
:10064000000007FFC1FF07FF80000001FFC3FF8715
:10065000FF000000007F83FF87FC000000003F8355
:10066000FF83F8000000003F83FF83F800000000D4
:100670003F83FF83F8000000007F83FF87FC0000BA
:100680000001FFC3FF87FE00000003FFC1FF07FF5B
:100690008000000FFFC0FE07FFE000003FFF0000EA
:1006A00003FFF80000FFFE000000FFFC0001FFF860
:1006B0000000003FFF0007FFE00000000FFFC01F29
:1006C000FFC003838007FFE01FFF0007FFC001FF9B
:1006D000F01FFC0007FFC0007FF00FF0000FFFE0ED
:1006E000001FE00FE0000FFFE0000FE00780001F99
:1006F000FFF00003C00600003FFFF0000080000094
:10070000003FFFF80000000000007FFFFC00000039
:100710000000007FFFFC000000000000FFFFFE0063
:100720000000000001FFFFFE000000000001FFFFCD
:10073000FF000000000003FFFFFF000000000003B7
:10074000FFFFFF800000000007FFFFFFC000000068
:100750000007FFFFFFC0000000000FFFFFFFE000E9
:100760000000001FFFFFFFE0000000001FFFFFFF71
:10077000F0000000001FFFFFFFE00000000007FF87
:10078000FFFFC00000000001FFFFFF0000000000AD
:10079000003FFFF800000000000001FE0000000024
:1007A00000000000000000000045786974204669E0
:1007B000726D77617265004578616D706C6573006C
:1007C0005573657220446566696E65642050726F6A
:1007D0006772616D7300546F7563682053656E7343
:1007E0006F727300426574612046756E6374696F41
:1007F0006E2047656E657261746F720050696E207D
:10080000537461746573204D6F6E69746F72005319
:10081000657269616C204D6F6E69746F72004D690D
:100820006E69204F7363696C6C6F73636F706500E2
:10083000436F6E74726F6C73004E61764B65794DC9
:100840006F76653A20004E61766B6579205072654F
:100850007373005656523A2000657669766500201B
:1008600020002020002020416E676C653A00202087
:1008700020536572766F2032002020446972323A2C
:10088000002020446972313A00205374617465730A
:100890003A002050574D3A002020204D6F746F725F
:1008A0002032002020416E676C653A0020202053E2
:1008B0006572766F2031002020446972323A002040
:1008C00020446972313A00205374617465733A00B0
:1008D0002050574D3A002020204D6F746F72203108
:1008E000002F646976202832302073616D706C654A
:1008F0007329000253657269616C204D6F6E6974D3
:100900006F722020003E20003E20003E20003E204E
:10091000003E20003E20004469676974616C202617
:1009200020416E616C6F6720537461746573004180
:100930006E616C6F672050696E20537461746573CB
:10094000004469676974616C2050696E205374615A
:1009500074657300416E616C6F67204F75747075BC
:100960007400536177746F6F7468205761766520E7
:1009700028446F776E2900536177746F6F74682015
:1009800057617665202855702900547269616E6739
:10099000756C61722057617665005371756172657F
:1009A00020576176650053696E6520576176650052
:1009B00053746570706572204D6F746F727300535D
:1009C0006572766F73004D6F746F7273004D6F7444
:1009D0006F72203120262032004D6F746F722032EA
:1009E000004D6F746F72203100536572766F203145
:1009F0002026203200536572766F203200536572D4
:100A0000766F203100202000202000782020003147
:100A10003078000A205370656564203A0030202049
:100A200020004469722032004469722031000A209B
:100A30005374657070657220446972656374696F80
:100A40006E203A200004E010021C07123732292DD4
:100A500029252B3900010310E110031D07062E2C58
:100A6000292D2E2E373F0000021013800A298064A2
:100A7000022A040000007F2B040000009F022A04C9
:100A8000000200812B04000100A00F01809611805C
:100A9000FFB103012C2DB203012C2DB306012C2D27
:100AA000012C2DB40107C003A20284C101C5C202FA
:100AB0000A00C3028A2AC4028AEEC5010E2000364B
:100AC00001C83A0105120180321180FF3A81050AFE
:100AD000B1830006030A360108B6021502B401000C
:100AE000C08202700AC10105C2020102C5823C38FF
:100AF0000AFC021115E01009160920211B13191711
:100B0000151E2B0405020EE1900B14081E221D1861
:100B10001E1B1A242B0606020F0A2A04000200815B
:100B20002B040002008113800A2980FF2020002D61
:100B300000416D706C6974756465202856293A000F
:100B40004672657175656E63792028487A293A0086
:100B50002020002D0000080D081908260832083F43
:100B6000084B085808640871087E088A089708A38B
:100B700008B008BC08C908D508E208EE08FB080759
:100B800009140920092D093909450952095E096B23
:100B9000097709830990099C09A809B409C109CDFD
:100BA00009D909E509F209FE090A0A160A220A2EDC
:100BB0000A3A0A460A530A5F0A6B0A760A820A8EC2
:100BC0000A9A0AA60AB20ABE0ACA0AD50AE10AEDB8
:100BD0000AF80A040B100B1B0B270B320B3E0B49B8
:100BE0000B550B600B6C0B770B820B8E0B990BA4C8
:100BF0000BAF0BBA0BC50BD00BDC0BE70BF10BFCEF
:100C00000B070C120C1D0C280C320C3D0C480C521E
:100C10000C5D0C670C720C7C0C870C910C9B0CA669
:100C20000CB00CBA0CC40CCE0CD80CE20CEC0CF6CC
:100C30000C000D090D130D1D0D270D300D3A0D4340
:100C40000D4D0D560D5F0D690D720D7B0D840D8DD3
:100C50000D960D9F0DA80DB10DBA0DC30DCB0DD482
:100C60000DDC0DE50DED0DF60DFE0D070E0F0E174B
:100C70000E1F0E270E2F0E370E3F0E470E4F0E562D
:100C80000E5E0E650E6D0E740E7C0E830E8A0E9235
:100C90000E990EA00EA70EAE0EB50EBC0EC20EC95A
:100CA0000ED00ED60EDD0EE30EE90EF00EF60EFCA3
:100CB0000E020F080F0E0F140F1A0F200F250F2B07
:100CC0000F300F360F3B0F410F460F4B0F500F5594
:100CD0000F5A0F5F0F640F690F6E0F720F770F7B44
:100CE0000F800F840F880F8C0F910F950F990F9D18
:100CF0000FA00FA40FA80FAB0FAF0FB20FB60FB915
:100D00000FBC0FC00FC30FC60FC90FCB0FCE0FD133
:100D10000FD40FD60FD90FDB0FDD0FE00FE20FE47A
:100D20000FE60FE80FEA0FEC0FED0FEF0FF10FF2E8
:100D30000FF40FF50FF60FF70FF80FF90FFA0FFB7F
:100D40000FFC0FFD0FFE0FFE0FFF0FFF0FFF0FFF3A
:100D50000FFF0FFF0FFF0FFF0FFF0FFF0FFF0FFF23
:100D60000FFF0FFE0FFE0FFD0FFC0FFB0FFA0FF929
:100D70000FF80FF70FF60FF50FF40FF20FF10FEF5B
:100D80000FED0FEC0FEA0FE80FE60FE40FE20FE0B4
:100D90000FDD0FDB0FD90FD60FD40FD10FCE0FCB36
:100DA0000FC90FC60FC30FC00FBC0FB90FB60FB2DC
:100DB0000FAF0FAB0FA80FA40FA00F9D0F990F95AA
:100DC0000F910F8C0F880F840F800F7B0F770F729E
:100DD0000F6E0F690F640F5F0F5A0F550F500F4BB7
:100DE0000F460F410F3B0F360F300F2B0F250F20F3
:100DF0000F1A0F140F0E0F080F020FFC0EF60EF055
:100E00000EE90EE30EDD0ED60ED00EC90EC20EBCDC
:100E10000EB50EAE0EA70EA00E990E920E8A0E8380
:100E20000E7C0E740E6D0E650E5E0E560E4F0E4746
:100E30000E3F0E370E2F0E270E1F0E170E0F0E072A
:100E40000EFE0DF60DED0DE50DDC0DD40DCB0DC335
:100E50000DBA0DB10DA80D9F0D960D8D0D840D7B56
:100E60000D720D690D5F0D560D4D0D430D3A0D3090
:100E70000D270D1D0D130D090D000DF60CEC0CE2E8
:100E80000CD80CCE0CC40CBA0CB00CA60C9B0C915C
:100E90000C870C7C0C720C670C5D0C520C480C3DE2
:100EA0000C320C280C1D0C120C070CFC0BF10BE780
:100EB0000BDC0BD00BC50BBA0BAF0BA40B990B8E35
:100EC0000B820B770B6C0B600B550B490B3E0B32F7
:100ED0000B270B1B0B100B040BF80AED0AE10AD5CC
:100EE0000ACA0ABE0AB20AA60A9A0A8E0A820A76B2
:100EF0000A6B0A5F0A530A460A3A0A2E0A220A169F
:100F00000A0A0AFE09F209E509D909CD09C109B49D
:100F100009A8099C099009830977096B095E0952A0
:100F200009450939092D09200914090709FB08EEAB
:100F300008E208D508C908BC08B008A30897088AC1
:100F4000087E087108640858084B083F08320826D4
:100F50000819080D080008F307E707DA07CE07C1EC
:100F600007B507A8079C078F078207760769075D03
:100F7000075007440737072B071E0712070507F915
:100F800006EC06E006D306C706BB06AE06A206952B
:100F90000689067D067006640658064C063F063331
:100FA0000627061B060E060206F605EA05DE05D232
:100FB00005C605BA05AD05A10595058A057E05722C
:100FC0000566055A054E05420536052B051F051316
:100FD000050805FC04F004E504D904CE04C204B7F6
:100FE00004AB04A004940489047E04720467045CC6
:100FF00004510446043B043004240419040F04047F
:1010000004F903EE03E303D803CE03C303B803AE2E
:1010100003A30399038E03840379036F0365035AC3
:1010200003500346033C03320328031E0314030A40
:10103000030003F702ED02E302D902D002C602BDAB
:1010400002B302AA02A10297028E0285027C0273F9
:10105000026A02610258024F0246023D0235022C2A
:101060000224021B0213020A020202F901F101E941
:1010700001E101D901D101C901C101B901B101AA3F
:1010800001A2019B0193018C0184017D0176016E17
:101090000167016001590152014B0144013E0137D2
:1010A0000130012A0123011D01170110010A010469
:1010B00001FE00F800F200EC00E600E000DB00D5E5
:1010C00000D000CA00C500BF00BA00B500B000AB38
:1010D00000A600A1009C00970092008E0089008568
:1010E0000080007C00780074006F006B0067006374
:1010F0000060005C005800550051004E004A004757
:1011000000440040003D003A003700350032002F17
:10111000002C002A0027002500230020001E001CB0
:10112000001A00180016001400130011000F000E22
:10113000000C000B000A000900080007000600056B
:101140000004000300020002000100010001000091
:10115000000000000000000000000000000100018D
:101160000001000200020003000400050006000761
:1011700000080009000A000B000C000E000F00110F
:101180000013001400160018001A001C001E002096
:10119000002300250027002A002C002F00320035F4
:1011A0000037003A003D004000440047004A004E2E
:1011B000005100550058005C006000630067006B40
:1011C000006F00740078007C008000850089008E2C
:1011D00000920097009C00A100A600AB00B000B5F3
:1011E00000BA00BF00C500CA00D000D500DB00E097
:1011F00000E600EC00F200F800FE0004010A011015
:101200000117011D0123012A01300137013E01446C
:10121000014B0152015901600167016E0176017DA8
:101220000184018C0193019B01A201AA01B101B9C2
:1012300001C101C901D101D901E101E901F101F9BE
:101240000102020A0213021B0224022C0235023D93
:101250000246024F02580261026A0273027C028552
:10126000028E029702A102AA02B302BD02C602D0F8
:1012700002D902E302ED02F70200030A0314031E7F
:1012800003280332033C03460350035A0365036FEC
:1012900003790384038E039903A303AE03B803C346
:1012A00003CE03D803E303EE03F90304040F041988
:1012B00004240430043B04460451045C04670472B3
:1012C000047E0489049404A004AB04B704C204CED1
:1012D00004D904E504F004FC04080513051F052BDC
:1012E00005360542054E055A05660572057E058AD6
:1012F000059505A105AD05BA05C605D205DE05EAC9
:1013000005F60502060E061B06270633063F064CA9
:10131000065806640670067D0689069506A206AE86
:1013200006BB06C706D306E006EC06F9060507125B
:10133000071E072B073707440750075D0769077625
:101340000782078F079C07A807B507C107CE07DAF2
:1013500007E707F3075573657220446566206675D5
:101360006E206E616D6520330045673A20426C69DE
:101370006E6B20416E616C6F6720496E70757400F2
:1013800045673A20426C696E6B0000002000230024
:10139000260029002C002F0032000001000003016C
:1013A0000601090101021020200808102040102029
:1013B0004080020102010804020101020408102019
:1013C0004080804020100804020180040201804017
:1013D0002010080402010804020101020408102080
:1013E00040800102040810204080000022002500F7
:1013F00028002B002E0031003400020100000501FE
:1014000008010B0105050505070508080808020283
:1014100002020A0A0808040404040101010101018E
:1014200001010303030303030303040707070C0C71
:101430000C0C0C0C0C0C0202020206060606060638
:1014400006060B0B0B0B0B0B0B0B53657269616CD8
:1014500020332042617564205261746500536572C7
:1014600069616C20322042617564205261746500AC
:1014700053657269616C203020426175642052614D
:10148000746500323330343030003734383830004F
:10149000353736303000333834303000313932307F
:1014A00030003438303000323430300031323030B7
:1014B00000333030003235303030300031313532A9
:1014C00030300039363030007F1F820784068406B2
:1014D0008407827F188207840684068407827F201F
:1014E000278E0F900D920D9001800881018E018250
:1014F0000683108404850E8504850E8504850E857B
:1015000004850E8504850E8504850E8504850E856B
:1015100004850E8504850E8504850E8504850E855B
:1015200004850E8504850E85048410840482028E51
:101530000282048002920280069609940C90028135
:101540001B831985198519851985198519851985AB
:1015500019851985198519851985198519851A839C
:101560000B8E01810B900D920D900F8E28278E0F00
:10157000900D920D9001800881018E0182068310EA
:101580008404850E8504850E8504850E8504850EEC
:101590008504850E8504850E8504850E8504850EDB
:1015A0008504850E8504850E8504850E8504850ECB
:1015B0008504850E85048410840482028E028204D0
:1015C00080029202800696068001940782019002B2
:1015D000810484118304850E8504850E8504850E9F
:1015E0008504850E8504850E8504850E8504850E8B
:1015F0008504850E8504850E8504850E8504850E7B
:101600008504850E8504850E8504850E8505831069
:10161000830781018E01810B900D920D900F8E2812
:10162000278E0F900D920D9001800C8E01821B84ED
:1016300019851985198519851985198519851985BA
:10164000198519851985198519851A841C821E80AA
:101650005D811B831985198519851985198519855A
:10166000198519851985198519851985198519858A
:101670001A831C817F24278E0F900D920D900B8171
:10168000018E0B831A851985198519851985198588
:10169000198519851985198519851985198519845B
:1016A0001A82028E0A8002920A96068001940782AC
:1016B000019002810484118304850E8504850E85C2
:1016C00004850E8504850E8504850E8504850E85AA
:1016D00004850E8504850E8504850E8504850E859A
:1016E00004850E8504850E8504850E8504850E858A
:1016F000058310830781018E01810B900D920D905F
:101700000F8E28278E0F900D920D900B81018E0B5E
:10171000831A8519851985198519851985198519DA
:10172000851985198519851985198519841A8202E3
:101730008E0A8002920A9609940C9002811B8319EA
:1017400085198519851985198519851985198519A9
:1017500085198519851985198519851A830B8E01B7
:10176000810B900D920D900F8E287F1980088112A9
:10177000820683108404850E8504850E8504850EFB
:101780008504850E8504850E8504850E8504850EE9
:101790008504850E8504850E8504850E8504850ED9
:1017A0008504850E8504850E8504841084048202D8
:1017B0008E0282048002920280069609940C9002A6
:1017C000811B83198519851985198519851985192D
:1017D0008519851985198519851985198519851A18
:1017E000831C817F24278E0F900D920D9001800C19
:1017F0008E01821B8419851985198519851985190A
:101800008519851985198519851985198519851AE7
:10181000840A8E028208920280069609940C900235
:10182000811B8319851985198519851985198519CC
:101830008519851985198519851985198519851AB7
:10184000830B8E01810B900D920D900F8E28278EA9
:101850000F900D920D9001800C8E01821B841985D2
:101860001985198519851985198519851985198588
:1018700019851985198519851A840A8E028208929C
:1018800002800696068001940782019009841A85D9
:101890001985198519851985198519851985198558
:1018A000198519851985198519851A831C81018E59
:1018B0000F900D920D900F8E287F19801D821B8432
:1018C0001985198519851985198519851985198528
:1018D000198519851985198519851B831D811E8018
:1018E0005D811B83198519851985198519851985C8
:1018F00019851985198519851985198519851985F8
:101900001A831C817F24278E0F900D920D900180E9
:101910000881018E01820683108404850E8504856A
:101920000E8504850E8504850E8504850E85048547
:101930000E8504850E8504850E8504850E85048537
:101940000E8504850E8504850E8504850E85048428
:101950001084048214820480188024801E821581E1
:101960000484118304850E8504850E8504850E8507
:1019700004850E8504850E8504850E8504850E85F7
:1019800004850E8504850E8504850E8504850E85E7
:1019900004850E8504850E8504850E8505831083D8
:1019A0000781018E01810B900D920D900F8E287F83
:1019B0007F7F7B820784068406840782107F7F7F77
:1019C0007F3F7F7F10860C83028B0983018D088304
:1019D000008F078805860686098406850B840584A2
:1019E0000D8305840D8305840D8404830F83048394
:1019F0000F8304830F8304830F8304830F83048383
:101A00000F8304830F8304830F8304830E84048471
:101A10000D8305840C8405850B840586098406885E
:101A200005860683008F0783018D0883028B098357
:101A300004860C83188318831883188318831883EB
:101A4000188318831883327F7F7F058607860A8371
:101A50000289048A0883008C028C0783008D008E23
:101A600006870589058406850886088405840A8416
:101A70000A8305840A840A8305830B830B83058309
:101A80000B830B8305830B830B8305830B830B83F2
:101A900005830B830B8305830B830B8305830B83E8
:101AA0000B8305830B830B8305830B830B830583D8
:101AB0000B830B8305830B830B8305830B830B83C2
:101AC00005830B830B8305830B830B8305830B83B8
:101AD0000B8305830B830B8305830B830B830583A8
:101AE0000B830B8305830B830B837F7F7F7A7F7B45
:101AF000880F8D0A9009910785068506840A84055A
:101B0000830C8305830C8305830C83168315840E55
:101B10008B09900792068D01830588078305840B46
:101B20008304840C8304830D8304830D8304830C5A
:101B30008404830B85048409860584068A038F0147
:101B400084048D0284058A058307867F7F357F1A8A
:101B50008409840984098409847F3D840984098473
:101B6000098409847F7422880F8C0C8F0991078661
:101B700005860585098405840B8404830D8303840D
:101B80000D8303830F8302830F8302830F830283FA
:101B90000F8302830F8302840D8403830D840384E7
:101BA0000B8504840986048605880594068E0083C7
:101BB000078B02830A8604831683158316830383A7
:101BC0000E8303830D8403840C8305830B840584B7
:101BD00009850685058608900A8E0C8B11867F7F05
:101BE000332485118B0C8F0991078605860684099D
:101BF0008405840B8404840B8404830D8304830D87
:101C00008304830D8304840B8405830B830684097A
:101C10008407850585098F0B8D0B8F099107850733
:101C20008505840B8404830D8303840D8402830F54
:101C30008302830F8302830F8302830F8302830F48
:101C40008302840D8402840D8403840B840486073C
:101C50008605930791098F0D897F7F31379603960B
:101C600003960396168315831583158315841484B0
:101C700014841583158414841584148415831584A1
:101C8000158315841584158315841583168315848F
:101C9000158316831683168315841583168316837E
:101CA0007F7F532486118B0C8E0A9008860585064B
:101CB00085098405840B8305830C8403840D8303C9
:101CC000830E83038316831583168304860A830297
:101CD0008B0783008E069405880586048609840494
:101CE000850B8403840D8303840D8402830F830298
:101CF000830F8302830F8302830F8302830F830387
:101D0000830D8403830D8304840B84058409850576
:101D10008605860791098F0C8C0F887F7F313A9159
:101D200008910891089108821683168316831682FB
:101D300017821782168302870B83008B0991089202
:101D4000078605860684098505830B841683168419
:101D50001683168316831683168303830E830383E9
:101D60000D8403830D8304840B8405840985058613
:101D700005860791098F0B8D0F877F7F324583156D
:101D800084148513861386128711830083118300C0
:101D900083108301830F8302830E8402830E8303E7
:101DA000830D8304830C8305830B8405830B8306D7
:101DB000830A8307830984078309830883088309C7
:101DC0008307830A83079702970297029711831666
:101DD0008316831683168316831683168316837FD2
:101DE0007F4A23870F8D0B9008910786058606840E
:101DF000098405840B8404840B8404830D83048389
:101E00000D8304830D8315841584148414850D8B30
:101E10000E89108B0E8C148615841684158402830B
:101E20000F8302830F8302830F8302840D84028455
:101E30000C8503840B840485098505860586079136
:101E4000098F0B8D0F877F7F4D2487108C0B8F0997
:101E500091088505860684098406840A8306830B17
:101E60008404840C8304830D8304830D8304830D15
:101E700083168315841584148414851385128611A2
:101E800087108810880F8810871186128513851493
:101E90008414841583168315960396039603967F00
:101EA0007F4529821782168316831584148512872D
:101EB0000D8C0D8C0D8700830D8403831683168390
:101EC000168316831683168316831683168316834A
:101ED000168316831683168316831683168316833A
:101EE0001683168316831683168316837F7F4C23EF
:101EF000870F8D0B8F099107860586068409840656
:101F0000830B8305840B8404830D8304830D830476
:101F1000830D8303830F8302830F8302830F830266
:101F2000830F8302830F8302830F8302830F830255
:101F3000830F8302830F8302830F8302830F830245
:101F4000830F8302830F8302830F8303830D830434
:101F5000830D8304830D8304840B8405830B830624
:101F6000840984068605860791098F0B8D0F877F6C
:101F70007F327F7F7F558409840984098409847FA7
:101F8000387F7F458A058A058A058A7F7F7F2B7F78
:101F90007F7F7F3F191183098101810781038203BC
:101FA00080008006810181008007837F7F2C018370
:101FB0000A820A810A810A810A810A810A810A81C8
:101FC0000A810A810B810B82088109810A810A81B9
:101FD0000A810A810A810A810A810A8109820783AA
:101FE0001304810A810A810A810A810A810A810A0D
:101FF000810A810A810A810A810A810A810A810A89
:10200000810A810A810A810A810A810A810A810A78
:10201000810A81120683078209810A810A810A8165
:102020000A810A810A810A810A81098108820B8159
:102030000B810A810A810A810A810A810A810A8147
:102040000A810A820A830E48890189088207820769
:102050008207820881088207820782078208890135
:1020600089544D82068200810681018106810281A8
:10207000048103810481038104810481028105813B
:10208000028105810281068100810781008107812B
:1020900000810882098209820981098206840783F6
:1020A000144E81068101820482028104810481022E
:1020B00081058200820684088208840682008205E7
:1020C0008102810481048102820482018106815B94
:1020D0006B81048204810081048204810081048078
:1020E00000800481018102810081028102810281DC
:1020F00000810281028102810081028102810280CD
:1021000002800281038100810281008104810081BB
:1021100002810081048100810281008105820482A4
:1021200006820482068204827F0147810681008143
:10213000068101810481028104810281048103817D
:10214000028104810281048102810581008106816E
:102150000081068407820882585581068102810623
:102160008102810681028106810281068102810647
:102170008102810681028106810281068102810538
:1021800082028203830386008104840181620F81BD
:102190000481048104810285008502810481048117
:1021A0000481048104810481048104810483038205
:1021B000314A840587028203810281058101810AF7
:1021C00084078607840981018105810182038202D7
:1021D0008704855631810082018501820481058151
:1021E00005810581058105810581058105810581BF
:1021F0003B5E8301810486008103830184038105A2
:1022000082028206810281078102810781028107A1
:102210008102820681038105820383018404860092
:1022200081068301810C810C810C810C810C811F42
:102230005B8101830681008604840183038205811A
:102240000381068202810781028107810281078161
:102250000281068202820581038401830381008654
:102260000481018306810C810C810C810C81285E24
:102270008407880483028303810681028206820127
:102280008108810181088101810881018206820221
:1022900081068103830283048807846D5B81018446
:1022A0000581008604830382038205810381068100
:1022B00003810681038106810381068103810681F2
:1022C00003810681038106810381068103810681E2
:1022D0006A7F05810183038305810085008604836D
:1022E00002840282038204820481038105810581C4
:1022F00003810581058103810581058103810581B4
:1023000005810381058105810381058105810381A3
:102310000581058103810581058103810581058191
:102320007F1B078103810381038103810381038173
:10233000038103810381038103810381038103817D
:102340000381038103812B19810981098109810995
:10235000810482018103820281028203810182045D
:102360008100820585058604820181048102820341
:1023700081038103810382028104810281048253EB
:102380000781038103810F8103810381038103811D
:10239000038103810381038103810381038103811D
:1023A0000381038103810381018301820807810383
:1023B0008103810F810381038103810381038103F1
:1023C000810381038103810381038103812B1081B8
:1023D0000C810C810C810C810C81018405810086AB
:1023E00004830382038205810381068103810681C0
:1023F00003810681038106810381068103810681B1
:102400000381068103810681038106816A5E83015F
:102410008104860081038301840381058202810790
:102420008102810781028107810281078102820680
:102430008103810582038301840486008106830170
:10244000810C81028107810281068203820382045A
:10245000890685130A83028402810581058103862A
:10246000008602810581058105810581058105813F
:1024700005810581058105813B5883078704830118
:10248000830381058102820681018B018B01810B0F
:10249000820B810582028301830487078366198189
:1024A0000C810C810C810C810683018104860081E2
:1024B00003830184038105820282068102810781F0
:1024C00002810781028107810282068103810582E0
:1024D0000383018404860081068301816A52830696
:1024E000870383018203810581018209810A810AB0
:1024F000810A8205810281058102830182048706A7
:10250000835E10810C810C810C810C810C81018314
:10251000068100860484018303820581038106828B
:10252000028107810281078102810781028106827F
:102530000282058103840183038100860481018373
:102540006D5785058804810482038105810B81050F
:102550008703890282058102810681028106810248
:102560008203830386008302840282610B830385D6
:102570000182018200810381008103810082018246
:10258000018503837F1A7F7F1D8C261082078100BF
:10259000810581028103810481018106817F6F09A8
:1025A00084038406810681068106810681068106F0
:1025B00081068106810681068106810681068106E3
:1025C00081068106810681068103840384140180CB
:1025D0000B800B810B800B800B810B800B800B81A0
:1025E0000B800B800B810B800B800B810B800B8091
:1025F0000B810B800B800B810B800B800B810B8080
:102600000E0B840384038106810681068106810600
:102610008106810681068106810681068106810682
:102620008106810681068106810681068403841263
:10263000118C028C0C820B820B820C810C810C821F
:102640000B820B820C810C810C820B820B820B8221
:102650000C8D018D700F8209820082078202810732
:10266000810382058204810581068103810782013D
:1026700082088101810A830B830C810D810D810DFC
:10268000810D810D810D810D81760F81088101827F
:10269000068202810681048104810582028206810C
:1026A00002810881008109840A820B820A810081EB
:1026B00008820082078102810681048104820482EB
:1026C00003810681028206820082088268168206E1
:1026D00082068200810682068101810682068101CE
:1026E00082048100810482028104810081048103CB
:1026F00081048100810481038104810081048103BC
:1027000082028102810282048102810281028105AA
:10271000810281028102810581028102810281059B
:10272000820081048100820681008104810081078A
:10273000810081048100810781008104810081077B
:1027400083068308820682098206827F250E82081C
:10275000820081088101810881018108810281064E
:10276000810381068103810681048104810581043E
:10277000810581048106810281078102810781022E
:1027800081088100810981008109840A820B826E9F
:1027900013810981038109810381098103810981F1
:1027A00003810981038109810381098103810981F1
:1027B00003810981038109810381098103810981E1
:1027C00003810981038109810382078204820582D2
:1027D000068908877F020D9B05810B810B810B8188
:1027E0000B810B810B810B810B810B810B810B8189
:1027F0000B810B810B810B8167148507890482058E
:102800008203810781038107810381078202820D90
:10281000840B860B850C830D82018208810281085E
:10282000810281088102830582038A068673128BE6
:10283000048C03810882028109810281098102815D
:1028400009810281098102810881038C038B048143
:102850000782038108810381088202810981028144
:102860000981028109810281098102810981771828
:1028700086098A068304830482088203810A81020E
:10288000820A8201810C8101810C8101810C81010C
:10289000810C8101810C8101810C81018206800201
:1028A00082028105820181038205850483048306F7
:1028B0008C07860182108073118A048B0381078242
:1028C00002810881028108810281088102810881D8
:1028D00002810782028B038A04810D810D810D81A3
:1028E0000D810D810D810D817B1886098A06830477
:1028F000830482088203810A8102820A8201810C98
:102900008101810C8101810C8101810C8101810C8B
:102910008101810C8101820A8202810A810382087D
:102920008204830483068A09867F0A13820881034E
:102930008208810383078103840681038100810665
:102940008103810082058103810182048103810268
:102950008104810381028203810381038202810356
:102960008104810281038104820181038105820047
:10297000810381068100810381068403810783032B
:10298000810882038108827F16820A82038308837A
:102990000383088303830883038100810681008108
:1029A000038100810681008103810081068100810D
:1029B00003810181048101810381018104810181FD
:1029C00003810181048101810381028102810281ED
:1029D00003810281028102810381028102810281DD
:1029E00003810381008103810381038100810381CD
:1029F00003810384038103810482048103810482AF
:102A000004817F140E810A810A810A810A810A8168
:102A10000A810A810A810A810A810A810A810A815E
:102A20000A810A810A8A018A5A1281088202810770
:102A30008203810682048105820581048206810366
:102A40008207810282088101820981008309870847
:102A50008301820782038206810581068105820542
:102A600081068204810782038108820281098276BD
:102A700015810A810A810A810A810A810A810A81F3
:102A80000A810A810A810A81018106810181068108
:102A90000181068101820482028804865E07810327
:102AA0008103810381038103810381038103810306
:102AB00081038103810381038103810381038103F6
:102AC000812B13810981038109810381098103819C
:102AD0000981038109810381098103810981038DB2
:102AE000038D0381098103810981038109810381A8
:102AF000098103810981038109810381098103819E
:102B00000981038109817F1886098A068205830469
:102B10008208810481098202820F8110811081055F
:102B2000870281058702810B8102810B8102820A63
:102B30008103810982038207830483048405890059
:102B400081078503807F06108B028B02810C810C2C
:102B5000810C810C810C810C8A038A03810C810C0D
:102B6000810C810C810C810C810C8173118C028C85
:102B700002810D810D810D810D810D810D8B038BE6
:102B800003810D810D810D810D810D810D8C028CD4
:102B9000701389078B0581068304810882038109EC
:102BA000810381098202810A8102810A8102810AEC
:102BB0008102810A8102810A8102810A81028109DE
:102BC00082028109810381088203810683048B05C7
:102BD000897F031786088A0583048303820881039B
:102BE000810A8101820A8101810F810F810F810F8A
:102BF000810F810B8101820A810281098202820890
:102C00008104830483058A08867F02128A058C0367
:102C10008107820381088103810881038108810380
:102C200081088103810782038A058C03810782035F
:102C30008109810281098102810981028109810260
:102C4000810782038C038A7A15830B830B830A81A5
:102C50000181098101810981018108810381078145
:102C6000038107810381068105810581058105892D
:102C7000048B03810781038107810281098101811E
:102C80000981008209826F21880D82068209820AE9
:102C90008107810D8105810F8104800683018003F6
:102CA0008102810481028303810281038104810402
:102CB00081018104810481048101810381058104F2
:102CC00081018103810581048101810381048104E3
:102CD00081028103810481048102810381048103D3
:102CE00081048103810282028105810483018407BA
:102CF00081178117810B81098205830D876C1085EF
:102D00000488038203820182058101810681018199
:102D10000681098208820882088209810982098263
:102D20002382098209825F62820C820C830C820DED
:102D30008108820783078208827F155186018613E6
:102D4000860186636B8208820783078208810D8271
:102D50000D820C820C827F0C2B82038203823482D0
:102D6000038203820580048104800481172B82037F
:102D7000820382348203820382321F8505880482A3
:102D8000038202820581028107810181078101811D
:102D900007810182058202820383028A0484018101
:102DA0000B810181068102810681038104820388EF
:102DB00005866520830787058103810481058103DA
:102DC00081058103810581048103810685068704CD
:102DD00082038202810781018107810181078101CC
:102DE0008107810282038203890585651C8B018B23
:102DF0000A810A8209820A810A820A810A810B8178
:102E00000A820A810B810B810A810B810B81692067
:102E10008406880382048103810681028106810180
:102E2000810B810184048A0283038202820582016C
:102E30008107810181078101810781028105820269
:102E400082038204880585651D89038903810B81BE
:102E50000B810B8100840589028303820281068233
:102E60000B810B810B810181078101820582028226
:102E70000382038905856524810A82098309830801
:102E8000810081078101810681028106810281051D
:102E90008103810481048103810581038B018B09F6
:102EA000810B810B810B81641F850687048203825D
:102EB00003810581028205810B810A8207840885CE
:102EC0000B820B81018107810181078101820582CB
:102ED0000282038203890585651F850589038203B4
:102EE000820282068101810781018107810B810AAB
:102EF000820883078406840783088209820A810B7B
:102F00008B018B6222810B810A82078507850B81E9
:102F10000B810B810B810B810B810B810B810B8151
:102F20000B810B810B816620830787048301830358
:102F3000810581028205820181078101810781016A
:102F40008107810181078101810781018107810159
:102F50008107810182058202810581038301830447
:102F6000870783660D8105810580058105810580C0
:102F70000581058105800581058105800581058123
:102F80000580058105810580058105812D718203FC
:102F9000820382325885018568718203820382052B
:102FA000800481048004811753810781078104878D
:102FB00001870481078107816710810981098106E2
:102FC00080018101800289038506830681018104D5
:102FD000820182048003807F360781068006810695
:102FE00080068105810581068105810581058105B0
:102FF00081058105810581058105810481058105A2
:103000008105800581058005810D0D810580058183
:103010000580058105810581048105810581058182
:10302000058105810581058105810581068105816F
:1030300005810680068106800681070682028202DB
:10304000820480038102817415840A8608820282C8
:10305000078104810781048107810382088101823D
:103060000A840A830B850381038201820281028222
:103070000382018102810584038106830381078124
:10308000048204850388018203850482762D8207E9
:103090008105860580068102810481058104810203
:1030A00081068104810280078104810181088102F7
:1030B000810280098601800C82028102820C8001DB
:1030C00086098002810281088101810481078002D2
:1030D00081048106810281048105810481028106C7
:1030E0008005860581078207807F0C1F850589037F
:1030F000820382028107810181078101810B820B9A
:10310000810A8707810B810B810B810A810B860263
:1031100080018B01810483632E8101810C800280F8
:103120000D8002800C8101810C8002800D80028064
:10313000088D088002800D8002800D800280088D3D
:10314000088002800D8002800C8101810C80028049
:103150000D8002800C8101817F0D09800180038038
:10316000018003800180038001800380018003804F
:103170000180038001807F110A810581058105811D
:10318000058105810581058105810581058105810F
:1031900005811581058105813A7F0100003048488D
:1031A0003000000000000000000000000000324C71
:1031B000000000000000000000000000402020206F
:1031C00020202010202020202020400000404040CF
:1031D00040404040404040404040000010202020FF
:1031E000202020402020202020201000000000006F
:1031F00000FC0408304080FC0000000000000000DB
:103200000084848484844C3404087000000000002E
:1032100000888850205088880000000000000000CE
:10322000008282829292AA44000000000000000006
:10323000008282828244281000000000000000000A
:103240000084848484844C3400000000000000402A
:1032500040E04040404040300000000000000000DE
:103260000070888070088870000000000000000076
:1032700000B0C88080808080000000000000000056
:1032800000344C8484844C340404060000000000A4
:1032900000B0C8848484C8B0808080000000000032
:1032A00000384482828244380000000000000000A0
:1032B00000B0C88484848484000000000000000002
:1032C00000ACD29292929292000000000000C040A6
:1032D00040404040404040400000000000008080EE
:1032E000808890A0C0A0908800000000000000101E
:1032F00000301010101010101090600000000040FE
:1033000000404040404040400000000000008080FD
:1033100080B0C88484848484000000000000000021
:1033200000304C8484844C34040870000000304821
:10333000404040E0404040400000000000000000ED
:1033400000384484F8804438000000000000000485
:1033500004344C8484844C340000000000000000DD
:103360000038448080804438000000000000008065
:1033700080B0C8848484C8B0000000000000000051
:1033800000700804748C8C74000000000000404041
:1033900040200000000000000000000000000000CD
:1033A000000000000000000000FF0000000000001E
:1033B0000000000000000000000000001028440091
:1033C00000000000000000000000000000000000FD
:1033D00000000000000000000000000000E02020CD
:1033E0002020202020202020E000000000040408ED
:1033F00008101020204040808000000000E0808005
:103400008080808080808080E00000000000FE02DC
:1034100004081010204080FE00000000000082829E
:10342000824428101010101000000000000082825A
:103430004428101028448282000000000000000090
:103440000080808080808088808880490055005579
:103450000022002200000000000000000000828224
:10346000828244442828101000000000000082825C
:103470008282828282824438000000000000FE10B6
:103480001010101010101010000000000000384440
:103490008280601C02824438000000000000F88432
:1034A000828284F890888482000000000000384402
:1034B0008282828282824438080600000000F884FA
:1034C00082828284F88080800000000000003844FE
:1034D0008282828282824438000000000000C2C2E0
:1034E000A2A292928A8A8686000000000000000054
:1034F00000C180C180A280A280948094808880884E
:10350000808080808000000000000000000080803B
:1035100080808080808080FC000000000000848823
:1035200090A0C0A0908884820000000000000202E9
:103530000202020202824438000000000000E04063
:1035400040404040404040E00000000000008484D3
:103550008484FC84848484840000000000003C4255
:103560008080809C8282423C000000000000FE803F
:103570008080F88080808080000000000000FE8055
:103580008080FC80808080FE000000000000F884C5
:1035900082828282828284F80000000000003C4225
:1035A000808080808080423C000000000000F88421
:1035B0008284F884828284F80000000000001010E9
:1035C000282844447C8282820000000000003C42A3
:1035D00099A5A5A5A59E403E000000000000384426
:1035E000820204081010001000000000000000809B
:1035F0004020100810204080000000000000000063
:103600000000F800F80000000000000000000008C2
:103610001020408040201008000000000000000042
:1036200000C0C000C0C040800000000000000000DA
:1036300000C0C000C0C0000000000000000038440E
:103640008282463A020204780000000000003844FA
:1036500082443844828244380000000000007E0228
:1036600002040408081010100000000000003C4094
:103670008080B8C482824438000000000000FC80D2
:103680008080F80402028478000000000000040C2E
:1036900014244484FE040404000000000000788424
:1036A000020438040202847800000000000038445C
:1036B00082020418204080FE00000000000010304C
:1036C000501010101010107C000000000000384452
:1036D00044828282824444380000000000040408CE
:1036E00008101020204040808000000000000000F2
:1036F000000000000000C0C000000000000000004A
:10370000000000F8000000000000000000000000C1
:10371000000000000000C0C0408000000000000069
:10372000002020F820200000000000000000001011
:10373000925438549210000000000000C02010087D
:1037400008040404040408081020C0000C102040E1
:10375000408080808080404020100C00004040402D
:103760008000000000000000000000000000205069
:1037700088885020528C8C730000000000006191FA
:1037800092640810264989860000000000003C422F
:1037900040407040704040FE0000000000002424C3
:1037A00024FF2424FF2424240000000000A0A0A063
:1037B0000000000000000000000000000000404089
:1037C0004040404040400040000000000000000039
:1037D00000000000000000000000000C0C0C0C0CAD
:1037E0000C0C0C0C0C0C0C0C0C0C0C2020202020B5
:1037F00020202020200C0C0C0C0C0C0C0C0C0C0CA5
:103800000C0C0C0C0C0C0C0C0C0C0C0C0C0C0C0CF8
:103810000C0C0C0C0C0C0C0C0C0C0C0C0C0C0C0CE8
:103820000C0C0C0C0C0C0C0C0C0C0C0C0C0C0C0CD8
:103830000C0C0C0C0C0C0C0C0C0C0CBD19BD19BD9B
:1038400019BD19BD19BD19BD19BD19BD19BD19BDC8
:1038500019BD19BD19BD19AF19BD190619B9184EF1
:1038600018E5176A170317761620166D15E014C8A9
:1038700014BD19BD19BD19BD19BD19BD19BD19BD9D
:1038800019BD19BD19BD19BD19BD19BD19BD19BD88
:1038900019BD19BD19BD19BD19BD19BD19BD19BD78
:1038A00019BD19BD19BD19BD19BD19BD19BD19BD68
:1038B00019BD19BD19BD19BD19BD19BD19BD19BD58
:1038C00019BD19BD19BD19BD19BD19BD19BD19BD48
:1038D00019BD19BD19BD19BD19BD19BD19BD19BD38
:1038E00019BD19BD19BD19BD19BD19BD19BD19BD28
:1038F00019BD19BD19BD19BD19BD190C0C0C0C0C45
:103900000C0C0C0C0C0C0C0C110F0C1B1B1B1B1BA4
:103910001B1B1B1B1B0F0C0C0C0C0C0C0C0C0C0C99
:103920000C0C0C0C0C0C0C0C0C0C0C0C0C0C0C0CD7
:103930000C0C0C0C0C0C0C0C0C0C0C0C1B0C0C0CB8
:103940000C0C0C0C0C0C0C0C2A0C0C1D0C0C0C0C88
:103950000C0C0C0C0C0C0C070C0C0C8F1F8F1F8FFD
:103960001F8F1F8F1F8F1F8F1F8F1F8F1F8F1F8FE7
:103970001F8F1F8F1F811F721F8F1FEF1EA21E49D7
:103980001EE21D7D1D1E1DA31C5C1CE11B661B4E43
:103990001B8F1F8F1F8F1F8F1F8F1F8F1F8F1F8FBB
:1039A0001F8F1F8F1F8F1F8F1F8F1F8F1F8F1F8FA7
:1039B0001F8F1F8F1F8F1F8F1F8F1F8F1F8F1F8F97
:1039C0001F8F1F8F1F8F1F8F1F8F1F8F1F8F1F8F87
:1039D0001F8F1F8F1F8F1F8F1F8F1F8F1FEE1A8F1D
:1039E0001F8F1F8F1F8F1F8F1F8F1F8F1F8F1F8F67
:1039F0001F8F1F8F1F471A8F1F8F1FC2198F1F8F77
:103A00001F8F1F8F1F8F1F8F1F8F1F8F1F8F1F8F46
:103A10001F8F1F8F1F8F1F8F1F8F1F050808130EEB
:103A200015110608080C0A070807080E0E0E0E0EE0
:103A30000E0E0E0E0E07070E090E0D1910111212A2
:103A4000100F1312060D110D151213101311100E75
:103A5000120F170F1010090D090C0D090E0F0D0F85
:103A60000E080F0F06060C06160F0F0F0F080C0797
:103A70000E0C120D0D0C0D0D0D0F01993178315AF0
:103A8000311831EB308D3048303B300A30D92FB906
:103A90002FA82F992F942F8D2F642F272F042FD9E4
:103AA0002EA82E772E482E0F2EEC2DB32D7A2D6DAD
:103AB0002D582D442D3B2D272DFE2C872C482C0BCB
:103AC0002CD32B912B6C2B472B072BC22A9D2A70B2
:103AD0002A292A042A88292B29E928B8286F282E80
:103AE00028F927D62790274D27CD268A2655263018
:103AF000260126CE259F258B2586256C254125026E
:103B000025DD249E24792454240D24CE23AD238046
:103B10002347232223D1229C226F223022F121D459
:103B200021B1218E2159212A21D020A120622047B4
:103B3000201420E11FAE1F951F941F0000000000FD
:103B40003E5B4F5B3E3E6B4F6B3E1C3E7C3E1C180B
:103B50003C7E3C181C577D571C1C5E7F5E1C001869
:103B60003C1800FFE7C3E7FF0018241800FFE7DB5D
:103B7000E7FF30483A060E2629792926407F0505B9
:103B800007407F05253F5A3CE73C5A7F3E1C1C08F6
:103B9000081C1C3E7F14227F22145F5F005F5F06BB
:103BA000097F017F006689956A606060606094A209
:103BB000FFA29408047E040810207E201008082A22
:103BC0001C08081C2A08081E101010100C1E0C1EC1
:103BD0000C30383E3830060E3E0E06000000000065
:103BE00000005F00000007000700147F147F14240A
:103BF0002A7F2A122313086462364956205000088F
:103C0000070300001C2241000041221C002A1C7FE7
:103C10001C2A08083E0808008070300008080808C0
:103C200008000060600020100804023E5149453E33
:103C300000427F400072494949462141494D3318AD
:103C400014127F1027454545393C4A4949314121E5
:103C50001109073649494936464949291E000014C9
:103C60000000004034000000081422411414141411
:103C700014004122140802015909063E415D594EC3
:103C80007C1211127C7F494949363E414141227FD5
:103C90004141413E7F494949417F090909013E416E
:103CA0004151737F0808087F00417F410020404157
:103CB0003F017F081422417F404040407F021C02A8
:103CC0007F7F0408107F3E4141413E7F090909067C
:103CD0003E4151215E7F091929462649494932034F
:103CE000017F01033F4040403F1F2040201F3F40D5
:103CF00038403F631408146303047804036159498E
:103D00004D43007F414141020408102000414141E0
:103D10007F040201020440404040400003070800C5
:103D200020545478407F2844443838444444283848
:103D30004444287F385454541800087E090218A4BB
:103D4000A49C787F0804047800447D400020404013
:103D50003D007F1028440000417F40007C0478042F
:103D6000787C080404783844444438FC1824241827
:103D700018242418FC7C08040408485454542404CF
:103D8000043F44243C4040207C1C2040201C3C40FC
:103D900030403C44281028444C9090907C4464541B
:103DA0004C4400083641000000770000004136080E
:103DB0000002010204023C2623263C1EA1A161123E
:103DC0003A4040207A38545455592155557941216B
:103DD00054547841215554784020545579400C1E54
:103DE00052721239555555593954545459395554FC
:103DF00054580000457C410002457D420001457C4D
:103E000040F0292429F0F0282528F07C545545005D
:103E10002054547C547C0A097F4932494949323242
:103E200048484832324A4848303A4141217A3A4279
:103E3000402078009DA0A07D39444444393D404055
:103E4000403D3C24FF2424487E4943662B2FFC2F11
:103E50002BFF0929F620C0887E090320545479419C
:103E60000000447D413048484A32384040227A00C0
:103E70007A0A0A727D0D19317D2629292F282629D3
:103E800029292630484D4020380808080808080825
:103E900008382F10C8ACBA2F102834FA00007B0065
:103EA0000008142A142222142A1408AA005500AA71
:103EB000AA55AA55AA000000FF00101010FF001418
:103EC0001414FF001010FF00FF1010F010F0141475
:103ED00014FC001414F700FF0000FF00FF1414F49A
:103EE00004FC141417101F10101F101F1414141F9B
:103EF00000101010F0000000001F101010101F1014
:103F0000101010F010000000FF1010101010101012
:103F10001010FF10000000FF140000FF00FF000061
:103F20001F10170000FC04F414141710171414F4D5
:103F300004F40000FF00F714141414141414F70010
:103F4000F7141414171410101F101F141414F41461
:103F50001010F010F000001F101F0000001F1400D0
:103F60000000FC140000F010F01010FF10FF1414FB
:103F700014FF141010101F00000000F010FFFFFFCE
:103F8000FFFFF0F0F0F0F0FFFFFF0000000000FF87
:103F9000FF0F0F0F0F0F38444438447C2A2A3E1479
:103FA0007E02020606027E027E02635549416338A4
:103FB00044443C04407E201E2006027E020299A555
:103FC000E7A5991C2A492A1C4C7201724C304A4DB3
:103FD0004D303048784830BC625A463D3E494949E8
:103FE000007E0101017E2A2A2A2A2A44445F444491
:103FF00040514A444040444A51400000FF0103E020
:1040000080FF000008086B6B083612362436060F56
:10401000090F06000018180000001010003040FFC3
:104020000101001F01011E00191D1712003C3C3C3C
:104030003C0000000000CB37BB37AB379B378B37DA
:104040007B376B375B374B373B372B371B370B37A0
:10405000FB36EB36DB36CB36BB36AB369B368B3698
:104060007B366B365B364B363B362B361B360B3688
:10407000FB35EB35DB35CB35BB35AB359B358B3580
:104080007B356B355B354B353B352B351B350B3570
:10409000EB34DB34CB34BB34AB349B348B347B34E8
:1040A0006B345B343B342B341B340B34FB33EB333A
:1040B000DB33BB339B338B337B336B335B334B3320
:1040C0003B332B331B330B33FB32EB32DB32CB3244
:1040D000BB32AB329B328B327B326B325B324B3238
:1040E0003B322B321B320B32FB31EB31DB31CB312C
:1040F000BB31AB319B310000000000000000000824
:10410000364023411000000000007B3A1B3A1A00A1
:10411000000000005B39FB38303B38DB37300000F3
:10412000000000060304090809090307070806033D
:104130000605070808080808080808080803030611
:1041400006060809080808080808080804080807F7
:104150000A0808080808080808080A0808080407E0
:1041600004070904070707070706070704050604ED
:1041700008070807080606050708080607070503D5
:10418000050806416E616C6F672056616C75653A73
:1041900020005365747570203420656E64730020B0
:1041A0002020560020202050726F62652056004269
:1041B0006C7565746F6F7468204D6F62696C6520F3
:1041C000726F626F74005446542053657269616C5B
:1041D000204D6F6E69746F7228506F7431290050D2
:1041E000726F626520562053656E736500544654A5
:1041F00020446973706C61792028506F74312900F4
:10420000426C696E6B20416E616C6F6720496E7005
:1042100075740000002100240027002A002D0030C2
:1042200000330001010000040107010A0100000A37
:104230000B02090C0D0E080703040100000000002A
:10424000000000000000000000000000000000006E
:10425000000000000000000000121110000000002B
:10426000000000000000000000000000000000004E
:1042700000000073746172740073746F70002D2DF0
:104280002D0053656E6400544C563A0030323A00AB
:1042900030313A002F44004449474954414C2050A2
:1042A000494E5300414E414C4F472050494E530018
:1042B00000000000000000000000000000FC000002
:1042C00000000000001FFFF0000000000001FFFFE1
:1042D000FE000000000007FFFFFFC0000000001FFD
:1042E000FFFFFFF0000000007FFFFFFFF80000006D
:1042F00000FFFFFFFFFE00000003FFFC007FFF0048
:10430000000007FFC00007FFC000000FFF00000112
:10431000FFC000000FFC0000007FE0000007F8076E
:10432000FF803FC0000003F81FFFF00F8000000176
:10433000FC7FFFFC0700000000FFFFFFFF00000004
:1043400000007FFFFFFF80000000003FFC007FC0F7
:10435000000000001FE0001FE0000002000FC0008E
:1043600007E00080078007C00001C003C00FC00342
:10437000E3FF80000FE00FF001FFFFE0001FE01FF0
:10438000FC00FFFFF0007FE01FFF007FFFF801FF50
:10439000F01FFF803F83F807FFE007FFE01E00F0FB
:1043A0000FFFC003FFF80800003FFF0000FFFE0002
:1043B0000000FFFC00003FFF000001FFF800000FBD
:1043C000FFC0FE07FFE0000007FFC1FF07FF8000FE
:1043D0000001FFC3FF87FF000000007F83FF87FC11
:1043E000000000003F83FF83F8000000003F83FFD0
:1043F00083F8000000003F83FF83F8000000007F87
:1044000083FF87FC00000001FFC3FF87FE00000060
:1044100003FFC1FF07FF8000000FFFC0FE07FFE0A2
:1044200000003FFF000003FFF80000FFFE00000057
:10443000FFFC0001FFF80000003FFF0007FFE00065
:1044400000000FFFC01FFFC003838007FFE01FFFB6
:104450000007FFC001FFF01FFC0007FFC0007FF056
:104460000FF0000FFFE0001FE00FE0000FFFE00083
:104470000FE00780001FFFF00003C00600003FFFB1
:10448000F00000800000003FFFF800000000000086
:104490007FFFFC0000000000007FFFFC0000000028
:1044A0000000FFFFFE000000000001FFFFFE000013
:1044B00000000001FFFFFF000000000003FFFFFFFE
:1044C000000000000003FFFFFF800000000007FF66
:1044D000FFFFC00000000007FFFFFFC0000000005A
:1044E0000FFFFFFFE0000000001FFFFFFFE00000E4
:1044F00000001FFFFFFFF0000000001FFFFFFFE0B4
:104500000000000007FFFFFFC00000000001FFFFE8
:10451000FF0000000000003FFFF800000000000066
:1045200001FE00000000000000000000000000008C
:1045300053B36CBA11241FBECFEFD1E2DEBFCDBFA3
:1045400000E00CBF18E0A0E0B2E0E4E9F1E801E02F
:104550000BBF02C007900D92AE38B107D9F725E125
:10456000AEE8B8E001C01D92AB35B207E1F712E248
:10457000C9E9D2E200E006C021970109802FFE01BF
:104580000E948EBFC839D10780E00807A9F70E94B2
:10459000FCA70C94B9C00C9400002F923F924F924C
:1045A0005F926F927F928F929F92AF92BF92CF92C3
:1045B000DF92EF92FF920F931F93CF93DF93CDB7CC
:1045C000DEB7CF54D1090FB6F894DEBF0FBECDBF12
:1045D00010914B09612F70E0FC013997E937F10523
:1045E00010F00C943C358827EE58FF4F8F4F0C94F9
:1045F0008EBF80914C09682F70E040914D0950E0CA
:104600001130F1F49B01215031092230310530F491
:104610008EEB92E10E945CB80C943C35833031F40F
:104620008EEB92E10E9439B30C943C35843011F04A
:104630000C943C358EEB92E10E9441360C943C3553
:10464000123011F00C943C359B012150310922307D
:10465000310530F48FEA92E10E945CB80C943C354D
:10466000833031F48FEA92E10E9439B30C943C35E7
:10467000843011F00C943C358FEA92E10E9441366F
:104680000C943C3500914C0910E02091D4123091EB
:10469000D512032E000C440B550B60E077E883E93C
:1046A00093E00E9494BDC0904D09D12CE12CF12CD7
:1046B000CA01B901A70196010E9494BD2093D012AE
:1046C0003093D1124093D2125093D312B8018EEC92
:1046D00092E10E9448880C943C3580914C0990915D
:1046E0004D0990934109809342091093430981E554
:1046F0000E94594582E090E00E94C4440E945745C0
:1047000067E070E081E590E00E94547989E490E1EF
:104710000E94429D8F730E9463A78093400989E4A1
:1047200090E10E94429D87700E9463A780933D099B
:1047300089E490E10E94429D8F710E9463A780935B
:104740003F0989E490E10E94429D0E9463A7809303
:104750003E090E94F5A661E08DE10E94579964EF41
:1047600071E080E090E00E94CC9A60E08DE10E94D0
:1047700057990C943C3590914C0980914D092091AA
:104780004E091093400920933D0990933F0980936F
:104790003E0981E50E94594582E090E00E94C444B0
:1047A0000E94574567E070E081E590E00E945479EF
:1047B00089E490E10E94429D8F770E9463A78093D5
:1047C000410989E490E10E94429D8F770E9463A78E
:1047D0008093420989E490E10E94429D8F730E9478
:1047E00063A7809343090E94F5A661E08FE10E94D0
:1047F000579964EF71E080E090E00E94CC9A60E00D
:104800008FE10E9457990C943C3561E0812F0E9402
:10481000859960914C09812F0E9457990C943C35E1
:1048200061E0812F0E94859960914C0970E0812F91
:104830000E94C1990C943C3510914C09E2E2F9E0D8
:1048400080E090E0219131916217730781F0232B72
:1048500041F4FC01EE0FFF1FEE5DF64F71836083A4
:1048600006C001968830910569F780E090E0FC0170
:10487000EE0FFF1F8E0F9F1FFC01E351FD4E808145
:104880009181A28189839A83AB83153B10F00C94AC
:104890003C35898190E0FC01EE0FFF1F8E0F9F1FBA
:1048A000FC01E257F74F808186FD04C0CE010196DE
:1048B0000E94C98A612F70E0CE0101960E949C89F6
:1048C0000C943C35E0904C09F12CE2E2F9E080E0F8
:1048D00090E0219131916217730781F0232B41F40D
:1048E000FC01EE0FFF1FEE5DF64F7183608306C083
:1048F00001968830910569F780E090E0FC01EE0FA9
:10490000FF1F8E0F9F1FFC01E351FD4E20819181FF
:10491000828129839A838B83822F90E0FC01EE0FA2
:10492000FF1F8E0F9F1FFC01E257F74F808186FD0E
:1049300045C0203308F042C061E0812F0E94859974
:104940008981E82FF0E09F01220F331FE20FF31F50
:10495000E257F74F1F736081607C162B10839EE82F
:104960009A8394E69B836CE00E945BBF2CE0829F5D
:10497000B001112440E050E09B01240F351FF901E4
:10498000EE0FFF1F2E0F3F1FF901E257F74F9081E7
:1049900096FD08C04F5F5F4F4C30510569F790E0BE
:1049A0000E94888AE981F0E0CF01880F991FE80F03
:1049B000F91FE257F74F808180648083B701FF0CB5
:1049C000880B990B0E945FBC26E636E646EE5FE355
:1049D0000E94BEBC0E949FBECE0101960E949C898F
:1049E0000C943C350E94049B0E945DBC20E030E0AA
:1049F0004AE754E40E9437BE6093450B7093460B20
:104A00008093470B9093480B0C943C3565ED76E012
:104A1000CE0101960E94A24F0091470910E0035079
:104A2000110985E4E82E89E0F82EC70185549940E4
:104A3000801791075CF4D70116966C91CE01019610
:104A40000E94B34EBFEFEB1AFB0AEFCFBE016F5FC0
:104A50007F4F88E892E10E94CB9765ED76E0CE012A
:104A600001960E943F4FCE0101960E94694F0C941F
:104A70003C3565ED76E089E192E10E943F4F0BE421
:104A800019E0F80181918F01813019F461EA74E035
:104A900002C065EB76E089E192E10E94C64EF9E042
:104AA0000B3E1F0771F70C943C3565ED76E083E112
:104AB00092E10E943F4F02E519E0B2EFEB2EB9E020
:104AC000FB2ED8018D918D01813019F461EA74E0DB
:104AD00002C065EB76E083E192E10E94C64EE016EB
:104AE000F10679F769E172E1CE0101960E949A4FD1
:104AF0008BE090E00E944DA58C0189E090E00E943F
:104B00004DA59C0140914D0950E060914C0970E029
:104B100080914B09FE0131967F0190E00E94766BF7
:104B2000C7010E94694F63E172E1C7010E949A4F79
:104B30008BE090E00E944DA58C0189E090E00E94FE
:104B40004DA59C0180914B0960914D0990E0AC010D
:104B5000A3E0440F551FAA95E1F7460F511D609140
:104B60004C0970E00E94766BC7010E94694F0C945B
:104B70003C3586E090E00E944DA5BC0188E892E1BA
:104B80000E94D7780C943C3580914C0990E070934A
:104B90009D1260939C1290939F1280939E120C948E
:104BA0003C3588E090E00E944DA58C0186E090E0C5
:104BB0000E944DA59093A3128093A2121093A51268
:104BC0000093A41280914F09883020F4811103C012
:104BD00081E001C087E08093AB120C943C358AE001
:104BE00090E00E944DA500914E0910E020914D09E2
:104BF00030E040914C0950E060914B0970E07C013D
:104C000088E892E10E94857A0C943C3589E090E036
:104C10000E944DA520914D0930E040914C0950E093
:104C200060914B0970E08C0188E892E10E941A7A49
:104C30000C943C3589E090E00E944DA520914D09EF
:104C400030E040914C0950E060914B0970E08C01DC
:104C500088E892E10E94467A0C943C358091510993
:104C60008130B9F48AE090E00E944DA500914E0990
:104C700010E020914D0930E040914C0950E06091E6
:104C80004B0970E07C0188E892E10E940C8C0C9446
:104C90003C35823011F00C943C358AE090E00E9463
:104CA0004DA5A0904E09B12C60914D09662E712C36
:104CB000C0904C09D12CE0904B09F12C8C01930150
:104CC000A601B70188E892E10E94467AA5014C0D41
:104CD0005D1D415051099301B70188E892E10E949E
:104CE000467A9501A601B70188E892E10E941A7AF6
:104CF000B3016E0D7F1D615071099501A60188E811
:104D000092E10E941A7A0C943C35809152098130CC
:104D100009F046C08BE090E00E944DA53C01C09098
:104D20004F09D12CA0904E09B12C20904D09312C67
:104D300080904C09912C80914B09E82FF0E0FCA366
:104D4000EBA32F014C0C5D1C91012C193D092C1972
:104D50003D0973018501A401B20188E892E10E9436
:104D60000C8CAC18BD08AC18BD08F1E0AF1AB10846
:104D70008C0C9D1C2BA13CA1220E331EC1018C1951
:104D80009D09850121E0A601B40101970E94AE674B
:104D900022E0A601B401C2010E94AE670C943C352A
:104DA000823011F00C943C358BE090E00E944DA5D0
:104DB000E0904F09F12C20904E09312C40904D0984
:104DC000442D50E05CA34BA3C0904C09D12C4090E3
:104DD0004B09512C4A018E189F088E189F083701E5
:104DE000640C751C8C019401A601B30188E892E162
:104DF0000E94467AB1016C0D7D1D7EA36DA3AB01AF
:104E0000415051099401B30188E892E10E94467A29
:104E100041018E189F088E189F08CE0CDF1C94014C
:104E2000A601B20188E892E10E941A7A8BA19CA1A6
:104E3000480E591EB201615071099401A60188E81B
:104E400092E10E941A7A21E0A701B601C3010E94F3
:104E5000F7668DA09EA08E189F0891E0891A910890
:104E600028E0A701B401C3010E94F7664E185F084D
:104E7000A1E04A1A510822E0A701B601C2010E942E
:104E8000F76624E0A701B401C2010E94F7660C9402
:104E90003C3580915009813031F589E090E00E94E5
:104EA0004DA57C01C0904D09D12C80904C09912CCE
:104EB000A0904B09B12C9601220F331F2F5F3F4F5B
:104EC000A4014C195D098C01B50188E892E10E94AA
:104ED0001A7A00E010E023E0A601B401C5010E94A7
:104EE000AE670C943C35823011F00C943C3589E06F
:104EF00090E00E944DA57C0100914D0910E0C0900A
:104F00004C09D12CA0904B09B12C81E090E02C01F0
:104F1000401A510A88279927801B910BFC01E01B3E
:104F2000F10BFEA3EDA3B8016A0D7B1D9701A6014D
:104F300088E892E10E944B8CB501601B710B9701D0
:104F4000A60188E892E10E944B8CA601401B510B00
:104F50009701B50188E892E10E944B8CA8014C0DA5
:104F60005D1D9701B50188E892E10E944B8C612C90
:104F7000712C21E030E03AA729A76016710614F0E1
:104F80000C943C3557FC0AC0015011094DA15EA19B
:104F90004E5F5F4F5EA34DA3440E551E5FEF651A33
:104FA000750A69A57AA56E5F7F4F7AA769A7460E35
:104FB000571EC501860D971D9CA38BA39701460123
:104FC000800E911EA401BC0188E892E10E944B8CE6
:104FD0001501261837089701A401B10188E892E16C
:104FE0000E944B8C97014601801A910AA401B101DD
:104FF00088E892E10E944B8C9701A4016BA17CA1EF
:1050000088E892E10E944B8C4601860C971C970120
:10501000A401D501A00FB11FBCA3ABA3BD0188E8BB
:1050200092E10E944B8C9701A4011501201A310ACC
:10503000B10188E892E10E944B8C460186189708DE
:105040009701A401B10188E892E10E944B8C97017D
:10505000A4016BA17CA188E892E10E944B8C8DCFCA
:1050600080915109813009F09DC18AE090E00E9451
:105070004DA59AA789A780914E09B0914D09BBA370
:10508000B23010F40C943C35823010F40C943C3562
:10509000282E312CAB2EB12CE0914C092496EFAF89
:1050A00024972E2F30E026963FAF2EAF2697909173
:1050B0004B09492F50E028965FAF4EAF2897BB9F12
:1050C00040011124889FB00111247AAB69ABC4015F
:1050D000092C000CAA0BBB0B8FAB98AFA9AFBAAFD2
:1050E00052E0880F991FAA1FBB1F5A95D1F72E9621
:1050F0008CAF9DAFAEAFBFAF2E979B01032E000CC0
:10510000440B550B2BAF3CAF4DAF5EAF62E0220FAF
:10511000331F441F551F6A95D1F723962CAF3DAF1F
:105120004EAF5FAF2397C101880F991FA1E0B0E098
:10513000A81BB90BCBACDCACEDACFEACCC0CDD1CD5
:10514000EE1CFF1C94010E9496BFC60ED71EE81EDF
:10515000F91E26E030E0A9A9BAA90E949CBF2B0144
:105160003C0141E050E05EA74DA71BAA1CAA1DAA66
:105170001EAA18AA1FA628966EAD7FAD2897609626
:105180007FAF6EAF60979401D1010E9496BF2BA9AB
:105190003CA94DA95EA962177307840795070CF413
:1051A00066C009A51AA52DA53EA526964EAD5FADF4
:1051B00026974219530960966EAD7FAD60978FA513
:1051C00098A9681B790B7EA36DA388E892E10E94E1
:1051D000467A09A51AA52DA53EA526964EAD5FAD2A
:1051E0002697420D531D6DA17EA188E892E10E9491
:1051F000467AF7FC13C0A1E0B0E0A219B3092E96DD
:105200002CAD3DAD4EAD5FAD2E970E94BABDC60E22
:10521000D71EE81EF91E91E0291A3108C40CD51CCE
:10522000E61CF71CAFA5B8A91196B8ABAFA72BA980
:105230003CA94DA95EA96BAD7CAD8DAD9EAD260F91
:10524000371F481F591F2BAB3CAB4DAB5EAB2396B2
:105250008CAD9DADAEADBFAD2397480E591E6A1EF5
:105260007B1EADA5BEA51296BEA7ADA78CCFA1E0B3
:10527000B0E0FBA1E2E0FE9FA019B109112429A929
:105280003AA90E9496BF0FA918AD29AD3AAD000FFB
:10529000111F221F331F68017901C60ED71EE81E99
:1052A000F91E26E030E0D4010E949CBF2B013C0196
:1052B0001DA21EA21FA218A6212C312C24963FADA0
:1052C0002497232F30E03EA72DA729A93AA9D5017D
:1052D0000E9496BF2DA13EA14FA158A5621773074A
:1052E0008407950714F40C943C354501880C991CEF
:1052F0003FEF831A930A09A51AA594014DA55EA54F
:105300004219530928966EAD7FAD28976A197B091B
:105310007CA36BA388E892E10E94467A09A51AA5AE
:1053200094014DA55EA5420D531D6BA17CA188E89B
:1053300092E10E94467AF7FC13C0A1E0B0E0AA19FE
:10534000BB0923962CAD3DAD4EAD5FAD23970E94BA
:10535000BABDC60ED71EE81EF91E71E0A71AB10825
:10536000C40CD51CE61CF71C8FEF281A380A2DA197
:105370003EA14FA158A56FA978AD89AD9AAD260F72
:10538000371F481F591F2DA33EA34FA358A72E9682
:105390008CAD9DADAEADBFAD2E97480E591E6A1EA9
:1053A0007B1E93CF823011F00C943C358AE090E064
:1053B0000E944DA58C0180914E0990914D099DA3AD
:1053C000923010F40C943C35823010F40C943C353F
:1053D000882E912CA92FB0E0BCA3ABA3E0914C097F
:1053E0002496EFAF24972E2F30E026963FAF2EAFB6
:1053F000269790914B09492F50E05EA74DA77DA1BC
:10540000779FB00111247AAB69AB889FD00111243A
:10541000B8ABAFA79B01032E000C440B550B2FAB71
:1054200038AF49AF5AAF62E0220F331F441F551FF8
:105430006A95D1F72A962CAF3DAF4EAF5FAF2A9752
:10544000AD01052E000C660B770B4BAF5CAF6DAF5B
:105450007EAFE2E0440F551F661F771FEA95D1F734
:105460002E964CAF5DAF6EAF7FAF2E97C401880F05
:10547000991FA1E0B0E0A81BB90BCBACDCACEDAC44
:10548000FEACCC0CDD1CEE1CFF1C29A93AA90E9425
:1054900096BFC60ED71EE81EF91E26E030E0AFA567
:1054A000B8A90E949CBF2B013C016DA57EA57AA7DF
:1054B00069A71B011BAA1CAA1DAA1EAA29A93AA9F1
:1054C000D4010E9496BF2BA93CA94DA95EA96217E1
:1054D0007307840795070CF467C098012696AEAC55
:1054E000BFAC2697A80CB91CA50169A57AA588E8C8
:1054F00092E10E944B8C9801A501B10188E892E1EC
:105500000E944B8C98012696AEACBFAC2697A8188B
:10551000B908A501B10188E892E10E944B8C98017D
:10552000A50169A57AA588E892E10E944B8CF7FC59
:1055300013C0A1E0B0E0A819B9092A962CAD3DAD81
:105540004EAD5FAD2A970E94BABDC60ED71EE81EAB
:10555000F91E31E0831A9108C40CD51CE61CF71C17
:105560004BA95CA96DA97EA98BAD9CADADADBEADBF
:10557000480F591F6A1F7B1F4BAB5CAB6DAB7EABFB
:105580002E962CAD3DAD4EAD5FAD2E97420E531E07
:10559000641E751E49A55AA54F5F5F4F5AA749A7BC
:1055A00051E0251A31088ACFA1E0B0E07DA162E088
:1055B000769FA019B10911242FA538A90E9496BF82
:1055C000CFA8D8ACE9ACFAACCC0CDD1CEE1CFF1CAF
:1055D000C60ED71EE81EF91E26E030E0A9A9BAA91A
:1055E0000E949CBF2B013C0124968FAD2497882EEE
:1055F000912C140119A61AA61BA61CA62FA538A922
:10560000ABA1BCA10E9496BF29A53AA54BA55CA55C
:10561000621773078407950714F40C943C359801BE
:10562000A1016DA57EA56A0F7B1F7EA36DA388E8EF
:1056300092E10E944B8C9801A101ADA4BEA48BA164
:105640009CA1A81AB90AB50188E892E10E944B8C86
:105650009801A401B50188E892E10E944B8C980161
:10566000A4016DA17EA188E892E10E944B8CF7FC19
:1056700015C0A1E0B0E0EBA1FCA1AE1BBF0B2E96C4
:105680002CAD3DAD4EAD5FAD2E970E94BABDC60E9E
:10569000D71EE81EF91E3197FCA3EBA3C40CD51C42
:1056A000E61CF71C29A53AA54BA55CA56FA978AD0A
:1056B00089AD9AAD260F371F481F591F29A73AA752
:1056C0004BA75CA72A968CAD9DADAEADBFAD2A971A
:1056D000480E591E6A1E7B1E9FEF291A390AA1E047
:1056E0008A1A91088BCF80915309813009F015C136
:1056F0008CE090E00E944DA51C018091500990E043
:1057000040914F0950E0A0904E09B12CC0904D0936
:10571000D12C80904C09912CE0904B09F12CA814CD
:10572000B9045CF4881599051CF42401B7010EC076
:105730002C01BA01C401A70109C08A159B0514F008
:105740000C94383525015401B60167018A159B0573
:105750001CF44C017A0104C045015C0176016A0128
:105760008414950411F5CE14DF0454F09E2D8F2D72
:10577000EC14FD0414F49C2D8D2D6701E92EF82EF8
:105780006C157D052CF0E616F7060CF47B01B601CE
:105790009701261B370B2F5F3F4F8101A40188E83B
:1057A00092E10E94467A0C943C35F601EE19FF090D
:1057B000FCABEBAB95012819390938AF2FABAB0126
:1057C0004E195F095CA34BA3C201881999099EA7D2
:1057D0008DA7DB01AC19BD09BAABA9ABF201EA197F
:1057E000FB09FCAFEBAFA414B50431F095012150D7
:1057F000310938AB2FA702C0B8AAAFA634011AA648
:1058000019A61EA21DA24FA558A946155705CCF1F1
:105810008DA19EA16FA978AD0E947BBFFB01EE0D0B
:10582000FF1D89A59AA56DA57EA50E947BBF6E0D63
:105830007F1D8DA19EA1ABA9BCA98A0F9B1F9EA312
:105840008DA329A53AA54BA15CA1240F351F3AA72A
:1058500029A76E177F072CF49E2F8F2FFB01692F2E
:10586000782F6E1B7F0B9B012F5F3F4F8101A301A0
:10587000BF0188E892E10E94467A5FEF651A750AD7
:10588000C2CFC3018A199B0969A97AA9869F5001D1
:10589000879FB00C969FB00C1124C30188199909F9
:1058A000ABA1BCA18A9F40018B9F900C9A9F900C4A
:1058B00011244614570414F40C943C35C5016BAD07
:1058C0007CAD0E947BBFFB01EC0DFD1DC4016DA5ED
:1058D0007EA50E947BBF6E0D7F1D29A93AA9A20E4D
:1058E000B31E4BA15CA1840E951E6E177F072CF48E
:1058F0009E2F8F2FFB01692F782F6E1B7F0B9B0133
:105900002F5F3F4F8101A301BF0188E892E10E9410
:10591000467A5FEF651A750ACCCF823011F00C948D
:105920003C358CE090E00E944DA53C012090500950
:10593000312C80914F09682F70E07CA36BA380907D
:105940004E09912CA0904D09B12C40904C09512C3E
:10595000C0904B09D12C730184019501A201B601BD
:1059600088E892E10E94857A81012BA13CA1A401E3
:10597000B50188E892E10E94857A82019601A10131
:105980006BA17CA188E892E10E94857A0C943C3559
:10599000111102C062E001C060E088E892E10E945B
:1059A000856688E892E10E945F7C0C943C350E94F9
:1059B0003F6A0C943C350E943F6A65ED76E0CE016B
:1059C00001960E94A24F0091470910E0035011096F
:1059D000B5E4EB2EB9E0FB2EC70185549940801742
:1059E00091075CF4D70116966C91CE0101960E9446
:1059F000B34EBFEFEB1AFB0AEFCFBE016F5F7F4FD5
:105A0000CE0146960E949A4FCE0146960E94A07DF6
:105A1000CE0146960E94694FCE0101960E94694FC1
:105A20000C943C350E943F6A80917F1490E00E9464
:105A3000C0BA90937A148093791480E090E020911A
:105A40007F1430E0821793074CF4E0917914F091C1
:105A50007A14E80FF91F10820196F1CFA3E7AA2E5E
:105A6000A4E1BA2EE12CF12C00917F1410E0E01695
:105A7000F10624F500E010E0C0907914D0907A147B
:105A8000CE0CDF1CF6019080F501E00FF11F86853A
:105A90000E942F99002E01C0880F0A94EAF7890D01
:105AA000D6018C930F5F1F4F0830110529F7BFEF08
:105AB000EB1AFB0AE8E0AE0EB11CD6CF83E794E107
:105AC0000E94BE60DC011F96EC90B1E0EB1206C0B4
:105AD000FC01F088F3E0FF1609F4C1C68091791447
